{"contracts/Voting.sol":{"Voting":{"abi":[{"inputs":[{"internalType":"string[]","name":"_candidateNames","type":"string[]"},{"internalType":"uint256","name":"_durationInMinutes","type":"uint256"}],"stateMutability":"nonpayable","type":"constructor"},{"inputs":[{"internalType":"string","name":"_name","type":"string"}],"name":"addCandidate","outputs":[],"stateMutability":"nonpayable","type":"function"},{"inputs":[{"internalType":"uint256","name":"","type":"uint256"}],"name":"candidates","outputs":[{"internalType":"string","name":"name","type":"string"},{"internalType":"uint256","name":"voteCount","type":"uint256"}],"stateMutability":"view","type":"function"},{"inputs":[],"name":"getAllVotesOfCandidates","outputs":[{"components":[{"internalType":"string","name":"name","type":"string"},{"internalType":"uint256","name":"voteCount","type":"uint256"}],"internalType":"struct Voting.Candidate[]","name":"","type":"tuple[]"}],"stateMutability":"view","type":"function"},{"inputs":[],"name":"getRemainingTime","outputs":[{"internalType":"uint256","name":"","type":"uint256"}],"stateMutability":"view","type":"function"},{"inputs":[],"name":"getVotingStatus","outputs":[{"internalType":"bool","name":"","type":"bool"}],"stateMutability":"view","type":"function"},{"inputs":[{"internalType":"uint256","name":"_candidateIndex","type":"uint256"}],"name":"vote","outputs":[],"stateMutability":"nonpayable","type":"function"},{"inputs":[{"internalType":"address","name":"","type":"address"}],"name":"voters","outputs":[{"internalType":"bool","name":"","type":"bool"}],"stateMutability":"view","type":"function"},{"inputs":[],"name":"votingEnd","outputs":[{"internalType":"uint256","name":"","type":"uint256"}],"stateMutability":"view","type":"function"},{"inputs":[],"name":"votingStart","outputs":[{"internalType":"uint256","name":"","type":"uint256"}],"stateMutability":"view","type":"function"}],"devdoc":{"kind":"dev","methods":{},"version":1},"evm":{"bytecode":{"linkReferences":{},"object":"60806040523480156200001157600080fd5b5060405162001748380380620017488339818101604052810190620000379190620003e6565b60005b8251811015620000e35760006040518060400160405280858481518110620000675762000066620006f0565b5b60200260200101518152602001600081525090806001815401808255809150506001900390600052602060002090600202016000909190919091506000820151816000019080519060200190620000c0929190620001d2565b506020820151816001015550508080620000da9062000644565b9150506200003a565b5033600160006101000a81548173ffffffffffffffffffffffffffffffffffffffff021916908373ffffffffffffffffffffffffffffffffffffffff16021790555042600381905550603c816200013b919062000537565b42620001489190620004da565b60048190555060005b8251811015620001c9576000600260003373ffffffffffffffffffffffffffffffffffffffff1673ffffffffffffffffffffffffffffffffffffffff16815260200190815260200160002060006101000a81548160ff0219169083151502179055508080620001c09062000644565b91505062000151565b50505062000792565b828054620001e090620005d8565b90600052602060002090601f01602090048101928262000204576000855562000250565b82601f106200021f57805160ff191683800117855562000250565b8280016001018555821562000250579182015b828111156200024f57825182559160200191906001019062000232565b5b5090506200025f919062000263565b5090565b5b808211156200027e57600081600090555060010162000264565b5090565b600062000299620002938462000475565b6200044c565b90508083825260208201905082856020860282011115620002bf57620002be62000753565b5b60005b858110156200031457815167ffffffffffffffff811115620002e957620002e86200074e565b5b808601620002f889826200039c565b85526020850194506020840193505050600181019050620002c2565b5050509392505050565b6000620003356200032f84620004a4565b6200044c565b90508281526020810184848401111562000354576200035362000758565b5b62000361848285620005a2565b509392505050565b600082601f8301126200038157620003806200074e565b5b81516200039384826020860162000282565b91505092915050565b600082601f830112620003b457620003b36200074e565b5b8151620003c68482602086016200031e565b91505092915050565b600081519050620003e08162000778565b92915050565b600080604083850312156200040057620003ff62000762565b5b600083015167ffffffffffffffff8111156200042157620004206200075d565b5b6200042f8582860162000369565b92505060206200044285828601620003cf565b9150509250929050565b6000620004586200046b565b90506200046682826200060e565b919050565b6000604051905090565b600067ffffffffffffffff8211156200049357620004926200071f565b5b602082029050602081019050919050565b600067ffffffffffffffff821115620004c257620004c16200071f565b5b620004cd8262000767565b9050602081019050919050565b6000620004e78262000598565b9150620004f48362000598565b9250827fffffffffffffffffffffffffffffffffffffffffffffffffffffffffffffffff038211156200052c576200052b62000692565b5b828201905092915050565b6000620005448262000598565b9150620005518362000598565b9250817fffffffffffffffffffffffffffffffffffffffffffffffffffffffffffffffff04831182151516156200058d576200058c62000692565b5b828202905092915050565b6000819050919050565b60005b83811015620005c2578082015181840152602081019050620005a5565b83811115620005d2576000848401525b50505050565b60006002820490506001821680620005f157607f821691505b60208210811415620006085762000607620006c1565b5b50919050565b620006198262000767565b810181811067ffffffffffffffff821117156200063b576200063a6200071f565b5b80604052505050565b6000620006518262000598565b91507fffffffffffffffffffffffffffffffffffffffffffffffffffffffffffffffff82141562000687576200068662000692565b5b600182019050919050565b7f4e487b7100000000000000000000000000000000000000000000000000000000600052601160045260246000fd5b7f4e487b7100000000000000000000000000000000000000000000000000000000600052602260045260246000fd5b7f4e487b7100000000000000000000000000000000000000000000000000000000600052603260045260246000fd5b7f4e487b7100000000000000000000000000000000000000000000000000000000600052604160045260246000fd5b600080fd5b600080fd5b600080fd5b600080fd5b600080fd5b6000601f19601f8301169050919050565b620007838162000598565b81146200078f57600080fd5b50565b610fa680620007a26000396000f3fe608060405234801561001057600080fd5b50600436106100935760003560e01c8063581c281c11610066578063581c281c1461011f57806385a386351461013d57806390a9ab901461015b578063a3ec138d14610179578063efb98bcf146101a957610093565b80630121b93f14610098578063101158af146100b45780633477ee2e146100d2578063462e91ec14610103575b600080fd5b6100b260048036038101906100ad919061084b565b6101c7565b005b6100bc610331565b6040516100c99190610b56565b60405180910390f35b6100ec60048036038101906100e7919061084b565b610337565b6040516100fa929190610aa6565b60405180910390f35b61011d60048036038101906101189190610802565b6103f3565b005b6101276104f0565b6040516101349190610a8b565b60405180910390f35b61014561050a565b6040516101529190610b56565b60405180910390f35b610163610510565b6040516101709190610a69565b60405180910390f35b610193600480360381019061018e91906107d5565b61060b565b6040516101a09190610a8b565b60405180910390f35b6101b161062b565b6040516101be9190610b56565b60405180910390f35b600260003373ffffffffffffffffffffffffffffffffffffffff1673ffffffffffffffffffffffffffffffffffffffff16815260200190815260200160002060009054906101000a900460ff1615610254576040517f08c379a000000000000000000000000000000000000000000000000000000000815260040161024b90610ad6565b60405180910390fd5b600080549050811061029b576040517f08c379a000000000000000000000000000000000000000000000000000000000815260040161029290610af6565b60405180910390fd5b600081815481106102af576102ae610df5565b5b906000526020600020906002020160010160008154809291906102d190610d4e565b91905055506001600260003373ffffffffffffffffffffffffffffffffffffffff1673ffffffffffffffffffffffffffffffffffffffff16815260200190815260200160002060006101000a81548160ff02191690831515021790555050565b60035481565b6000818154811061034757600080fd5b906000526020600020906002020160009150905080600001805461036a90610ceb565b80601f016020809104026020016040519081016040528092919081815260200182805461039690610ceb565b80156103e35780601f106103b8576101008083540402835291602001916103e3565b820191906000526020600020905b8154815290600101906020018083116103c657829003601f168201915b5050505050908060010154905082565b600160009054906101000a900473ffffffffffffffffffffffffffffffffffffffff1673ffffffffffffffffffffffffffffffffffffffff163373ffffffffffffffffffffffffffffffffffffffff1614610483576040517f08c379a000000000000000000000000000000000000000000000000000000000815260040161047a90610b16565b60405180910390fd5b600060405180604001604052808381526020016000815250908060018154018082558091505060019003906000526020600020906002020160009091909190915060008201518160000190805190602001906104e0929190610698565b5060208201518160010155505050565b60006003544210158015610505575060045442105b905090565b60045481565b60606000805480602002602001604051908101604052809291908181526020016000905b82821015610602578382906000526020600020906002020160405180604001604052908160008201805461056790610ceb565b80601f016020809104026020016040519081016040528092919081815260200182805461059390610ceb565b80156105e05780601f106105b5576101008083540402835291602001916105e0565b820191906000526020600020905b8154815290600101906020018083116105c357829003601f168201915b5050505050815260200160018201548152505081526020019060010190610534565b50505050905090565b60026020528060005260406000206000915054906101000a900460ff1681565b6000600354421015610672576040517f08c379a000000000000000000000000000000000000000000000000000000000815260040161066990610b36565b60405180910390fd5b60045442106106845760009050610695565b426004546106929190610c2d565b90505b90565b8280546106a490610ceb565b90600052602060002090601f0160209004810192826106c6576000855561070d565b82601f106106df57805160ff191683800117855561070d565b8280016001018555821561070d579182015b8281111561070c5782518255916020019190600101906106f1565b5b50905061071a919061071e565b5090565b5b8082111561073757600081600090555060010161071f565b5090565b600061074e61074984610b96565b610b71565b90508281526020810184848401111561076a57610769610e58565b5b610775848285610ca9565b509392505050565b60008135905061078c81610f42565b92915050565b600082601f8301126107a7576107a6610e53565b5b81356107b784826020860161073b565b91505092915050565b6000813590506107cf81610f59565b92915050565b6000602082840312156107eb576107ea610e62565b5b60006107f98482850161077d565b91505092915050565b60006020828403121561081857610817610e62565b5b600082013567ffffffffffffffff81111561083657610835610e5d565b5b61084284828501610792565b91505092915050565b60006020828403121561086157610860610e62565b5b600061086f848285016107c0565b91505092915050565b60006108848383610a0e565b905092915050565b600061089782610bd7565b6108a18185610bfa565b9350836020820285016108b385610bc7565b8060005b858110156108ef57848403895281516108d08582610878565b94506108db83610bed565b925060208a019950506001810190506108b7565b50829750879550505050505092915050565b61090a81610c73565b82525050565b600061091b82610be2565b6109258185610c0b565b9350610935818560208601610cb8565b61093e81610e67565b840191505092915050565b600061095482610be2565b61095e8185610c1c565b935061096e818560208601610cb8565b61097781610e67565b840191505092915050565b600061098f601783610c1c565b915061099a82610e78565b602082019050919050565b60006109b2601883610c1c565b91506109bd82610ea1565b602082019050919050565b60006109d5602f83610c1c565b91506109e082610eca565b604082019050919050565b60006109f8601b83610c1c565b9150610a0382610f19565b602082019050919050565b60006040830160008301518482036000860152610a2b8282610910565b9150506020830151610a406020860182610a4b565b508091505092915050565b610a5481610c9f565b82525050565b610a6381610c9f565b82525050565b60006020820190508181036000830152610a83818461088c565b905092915050565b6000602082019050610aa06000830184610901565b92915050565b60006040820190508181036000830152610ac08185610949565b9050610acf6020830184610a5a565b9392505050565b60006020820190508181036000830152610aef81610982565b9050919050565b60006020820190508181036000830152610b0f816109a5565b9050919050565b60006020820190508181036000830152610b2f816109c8565b9050919050565b60006020820190508181036000830152610b4f816109eb565b9050919050565b6000602082019050610b6b6000830184610a5a565b92915050565b6000610b7b610b8c565b9050610b878282610d1d565b919050565b6000604051905090565b600067ffffffffffffffff821115610bb157610bb0610e24565b5b610bba82610e67565b9050602081019050919050565b6000819050602082019050919050565b600081519050919050565b600081519050919050565b6000602082019050919050565b600082825260208201905092915050565b600082825260208201905092915050565b600082825260208201905092915050565b6000610c3882610c9f565b9150610c4383610c9f565b925082821015610c5657610c55610d97565b5b828203905092915050565b6000610c6c82610c7f565b9050919050565b60008115159050919050565b600073ffffffffffffffffffffffffffffffffffffffff82169050919050565b6000819050919050565b82818337600083830152505050565b60005b83811015610cd6578082015181840152602081019050610cbb565b83811115610ce5576000848401525b50505050565b60006002820490506001821680610d0357607f821691505b60208210811415610d1757610d16610dc6565b5b50919050565b610d2682610e67565b810181811067ffffffffffffffff82111715610d4557610d44610e24565b5b80604052505050565b6000610d5982610c9f565b91507fffffffffffffffffffffffffffffffffffffffffffffffffffffffffffffffff821415610d8c57610d8b610d97565b5b600182019050919050565b7f4e487b7100000000000000000000000000000000000000000000000000000000600052601160045260246000fd5b7f4e487b7100000000000000000000000000000000000000000000000000000000600052602260045260246000fd5b7f4e487b7100000000000000000000000000000000000000000000000000000000600052603260045260246000fd5b7f4e487b7100000000000000000000000000000000000000000000000000000000600052604160045260246000fd5b600080fd5b600080fd5b600080fd5b600080fd5b6000601f19601f8301169050919050565b7f596f75206861766520616c726561647920766f7465642e000000000000000000600082015250565b7f496e76616c69642063616e64696461746520696e6465782e0000000000000000600082015250565b7f4f6e6c792074686520636f6e7472616374206f776e65722063616e2063616c6c60008201527f20746869732066756e6374696f6e2e0000000000000000000000000000000000602082015250565b7f566f74696e6720686173206e6f742073746172746564207965742e0000000000600082015250565b610f4b81610c61565b8114610f5657600080fd5b50565b610f6281610c9f565b8114610f6d57600080fd5b5056fea264697066735822122057faa2795de045495e4c0029e83de34cd5b9cbe253c5385b66006098057293b764736f6c63430008070033","opcodes":"PUSH1 0x80 PUSH1 0x40 MSTORE CALLVALUE DUP1 ISZERO PUSH3 0x11 JUMPI PUSH1 0x0 DUP1 REVERT JUMPDEST POP PUSH1 0x40 MLOAD PUSH3 0x1748 CODESIZE SUB DUP1 PUSH3 0x1748 DUP4 CODECOPY DUP2 DUP2 ADD PUSH1 0x40 MSTORE DUP2 ADD SWAP1 PUSH3 0x37 SWAP2 SWAP1 PUSH3 0x3E6 JUMP JUMPDEST PUSH1 0x0 JUMPDEST DUP3 MLOAD DUP2 LT ISZERO PUSH3 0xE3 JUMPI PUSH1 0x0 PUSH1 0x40 MLOAD DUP1 PUSH1 0x40 ADD PUSH1 0x40 MSTORE DUP1 DUP6 DUP5 DUP2 MLOAD DUP2 LT PUSH3 0x67 JUMPI PUSH3 0x66 PUSH3 0x6F0 JUMP JUMPDEST JUMPDEST PUSH1 0x20 MUL PUSH1 0x20 ADD ADD MLOAD DUP2 MSTORE PUSH1 0x20 ADD PUSH1 0x0 DUP2 MSTORE POP SWAP1 DUP1 PUSH1 0x1 DUP2 SLOAD ADD DUP1 DUP3 SSTORE DUP1 SWAP2 POP POP PUSH1 0x1 SWAP1 SUB SWAP1 PUSH1 0x0 MSTORE PUSH1 0x20 PUSH1 0x0 KECCAK256 SWAP1 PUSH1 0x2 MUL ADD PUSH1 0x0 SWAP1 SWAP2 SWAP1 SWAP2 SWAP1 SWAP2 POP PUSH1 0x0 DUP3 ADD MLOAD DUP2 PUSH1 0x0 ADD SWAP1 DUP1 MLOAD SWAP1 PUSH1 0x20 ADD SWAP1 PUSH3 0xC0 SWAP3 SWAP2 SWAP1 PUSH3 0x1D2 JUMP JUMPDEST POP PUSH1 0x20 DUP3 ADD MLOAD DUP2 PUSH1 0x1 ADD SSTORE POP POP DUP1 DUP1 PUSH3 0xDA SWAP1 PUSH3 0x644 JUMP JUMPDEST SWAP2 POP POP PUSH3 0x3A JUMP JUMPDEST POP CALLER PUSH1 0x1 PUSH1 0x0 PUSH2 0x100 EXP DUP2 SLOAD DUP2 PUSH20 0xFFFFFFFFFFFFFFFFFFFFFFFFFFFFFFFFFFFFFFFF MUL NOT AND SWAP1 DUP4 PUSH20 0xFFFFFFFFFFFFFFFFFFFFFFFFFFFFFFFFFFFFFFFF AND MUL OR SWAP1 SSTORE POP TIMESTAMP PUSH1 0x3 DUP2 SWAP1 SSTORE POP PUSH1 0x3C DUP2 PUSH3 0x13B SWAP2 SWAP1 PUSH3 0x537 JUMP JUMPDEST TIMESTAMP PUSH3 0x148 SWAP2 SWAP1 PUSH3 0x4DA JUMP JUMPDEST PUSH1 0x4 DUP2 SWAP1 SSTORE POP PUSH1 0x0 JUMPDEST DUP3 MLOAD DUP2 LT ISZERO PUSH3 0x1C9 JUMPI PUSH1 0x0 PUSH1 0x2 PUSH1 0x0 CALLER PUSH20 0xFFFFFFFFFFFFFFFFFFFFFFFFFFFFFFFFFFFFFFFF AND PUSH20 0xFFFFFFFFFFFFFFFFFFFFFFFFFFFFFFFFFFFFFFFF AND DUP2 MSTORE PUSH1 0x20 ADD SWAP1 DUP2 MSTORE PUSH1 0x20 ADD PUSH1 0x0 KECCAK256 PUSH1 0x0 PUSH2 0x100 EXP DUP2 SLOAD DUP2 PUSH1 0xFF MUL NOT AND SWAP1 DUP4 ISZERO ISZERO MUL OR SWAP1 SSTORE POP DUP1 DUP1 PUSH3 0x1C0 SWAP1 PUSH3 0x644 JUMP JUMPDEST SWAP2 POP POP PUSH3 0x151 JUMP JUMPDEST POP POP POP PUSH3 0x792 JUMP JUMPDEST DUP3 DUP1 SLOAD PUSH3 0x1E0 SWAP1 PUSH3 0x5D8 JUMP JUMPDEST SWAP1 PUSH1 0x0 MSTORE PUSH1 0x20 PUSH1 0x0 KECCAK256 SWAP1 PUSH1 0x1F ADD PUSH1 0x20 SWAP1 DIV DUP2 ADD SWAP3 DUP3 PUSH3 0x204 JUMPI PUSH1 0x0 DUP6 SSTORE PUSH3 0x250 JUMP JUMPDEST DUP3 PUSH1 0x1F LT PUSH3 0x21F JUMPI DUP1 MLOAD PUSH1 0xFF NOT AND DUP4 DUP1 ADD OR DUP6 SSTORE PUSH3 0x250 JUMP JUMPDEST DUP3 DUP1 ADD PUSH1 0x1 ADD DUP6 SSTORE DUP3 ISZERO PUSH3 0x250 JUMPI SWAP2 DUP3 ADD JUMPDEST DUP3 DUP2 GT ISZERO PUSH3 0x24F JUMPI DUP3 MLOAD DUP3 SSTORE SWAP2 PUSH1 0x20 ADD SWAP2 SWAP1 PUSH1 0x1 ADD SWAP1 PUSH3 0x232 JUMP JUMPDEST JUMPDEST POP SWAP1 POP PUSH3 0x25F SWAP2 SWAP1 PUSH3 0x263 JUMP JUMPDEST POP SWAP1 JUMP JUMPDEST JUMPDEST DUP1 DUP3 GT ISZERO PUSH3 0x27E JUMPI PUSH1 0x0 DUP2 PUSH1 0x0 SWAP1 SSTORE POP PUSH1 0x1 ADD PUSH3 0x264 JUMP JUMPDEST POP SWAP1 JUMP JUMPDEST PUSH1 0x0 PUSH3 0x299 PUSH3 0x293 DUP5 PUSH3 0x475 JUMP JUMPDEST PUSH3 0x44C JUMP JUMPDEST SWAP1 POP DUP1 DUP4 DUP3 MSTORE PUSH1 0x20 DUP3 ADD SWAP1 POP DUP3 DUP6 PUSH1 0x20 DUP7 MUL DUP3 ADD GT ISZERO PUSH3 0x2BF JUMPI PUSH3 0x2BE PUSH3 0x753 JUMP JUMPDEST JUMPDEST PUSH1 0x0 JUMPDEST DUP6 DUP2 LT ISZERO PUSH3 0x314 JUMPI DUP2 MLOAD PUSH8 0xFFFFFFFFFFFFFFFF DUP2 GT ISZERO PUSH3 0x2E9 JUMPI PUSH3 0x2E8 PUSH3 0x74E JUMP JUMPDEST JUMPDEST DUP1 DUP7 ADD PUSH3 0x2F8 DUP10 DUP3 PUSH3 0x39C JUMP JUMPDEST DUP6 MSTORE PUSH1 0x20 DUP6 ADD SWAP5 POP PUSH1 0x20 DUP5 ADD SWAP4 POP POP POP PUSH1 0x1 DUP2 ADD SWAP1 POP PUSH3 0x2C2 JUMP JUMPDEST POP POP POP SWAP4 SWAP3 POP POP POP JUMP JUMPDEST PUSH1 0x0 PUSH3 0x335 PUSH3 0x32F DUP5 PUSH3 0x4A4 JUMP JUMPDEST PUSH3 0x44C JUMP JUMPDEST SWAP1 POP DUP3 DUP2 MSTORE PUSH1 0x20 DUP2 ADD DUP5 DUP5 DUP5 ADD GT ISZERO PUSH3 0x354 JUMPI PUSH3 0x353 PUSH3 0x758 JUMP JUMPDEST JUMPDEST PUSH3 0x361 DUP5 DUP3 DUP6 PUSH3 0x5A2 JUMP JUMPDEST POP SWAP4 SWAP3 POP POP POP JUMP JUMPDEST PUSH1 0x0 DUP3 PUSH1 0x1F DUP4 ADD SLT PUSH3 0x381 JUMPI PUSH3 0x380 PUSH3 0x74E JUMP JUMPDEST JUMPDEST DUP2 MLOAD PUSH3 0x393 DUP5 DUP3 PUSH1 0x20 DUP7 ADD PUSH3 0x282 JUMP JUMPDEST SWAP2 POP POP SWAP3 SWAP2 POP POP JUMP JUMPDEST PUSH1 0x0 DUP3 PUSH1 0x1F DUP4 ADD SLT PUSH3 0x3B4 JUMPI PUSH3 0x3B3 PUSH3 0x74E JUMP JUMPDEST JUMPDEST DUP2 MLOAD PUSH3 0x3C6 DUP5 DUP3 PUSH1 0x20 DUP7 ADD PUSH3 0x31E JUMP JUMPDEST SWAP2 POP POP SWAP3 SWAP2 POP POP JUMP JUMPDEST PUSH1 0x0 DUP2 MLOAD SWAP1 POP PUSH3 0x3E0 DUP2 PUSH3 0x778 JUMP JUMPDEST SWAP3 SWAP2 POP POP JUMP JUMPDEST PUSH1 0x0 DUP1 PUSH1 0x40 DUP4 DUP6 SUB SLT ISZERO PUSH3 0x400 JUMPI PUSH3 0x3FF PUSH3 0x762 JUMP JUMPDEST JUMPDEST PUSH1 0x0 DUP4 ADD MLOAD PUSH8 0xFFFFFFFFFFFFFFFF DUP2 GT ISZERO PUSH3 0x421 JUMPI PUSH3 0x420 PUSH3 0x75D JUMP JUMPDEST JUMPDEST PUSH3 0x42F DUP6 DUP3 DUP7 ADD PUSH3 0x369 JUMP JUMPDEST SWAP3 POP POP PUSH1 0x20 PUSH3 0x442 DUP6 DUP3 DUP7 ADD PUSH3 0x3CF JUMP JUMPDEST SWAP2 POP POP SWAP3 POP SWAP3 SWAP1 POP JUMP JUMPDEST PUSH1 0x0 PUSH3 0x458 PUSH3 0x46B JUMP JUMPDEST SWAP1 POP PUSH3 0x466 DUP3 DUP3 PUSH3 0x60E JUMP JUMPDEST SWAP2 SWAP1 POP JUMP JUMPDEST PUSH1 0x0 PUSH1 0x40 MLOAD SWAP1 POP SWAP1 JUMP JUMPDEST PUSH1 0x0 PUSH8 0xFFFFFFFFFFFFFFFF DUP3 GT ISZERO PUSH3 0x493 JUMPI PUSH3 0x492 PUSH3 0x71F JUMP JUMPDEST JUMPDEST PUSH1 0x20 DUP3 MUL SWAP1 POP PUSH1 0x20 DUP2 ADD SWAP1 POP SWAP2 SWAP1 POP JUMP JUMPDEST PUSH1 0x0 PUSH8 0xFFFFFFFFFFFFFFFF DUP3 GT ISZERO PUSH3 0x4C2 JUMPI PUSH3 0x4C1 PUSH3 0x71F JUMP JUMPDEST JUMPDEST PUSH3 0x4CD DUP3 PUSH3 0x767 JUMP JUMPDEST SWAP1 POP PUSH1 0x20 DUP2 ADD SWAP1 POP SWAP2 SWAP1 POP JUMP JUMPDEST PUSH1 0x0 PUSH3 0x4E7 DUP3 PUSH3 0x598 JUMP JUMPDEST SWAP2 POP PUSH3 0x4F4 DUP4 PUSH3 0x598 JUMP JUMPDEST SWAP3 POP DUP3 PUSH32 0xFFFFFFFFFFFFFFFFFFFFFFFFFFFFFFFFFFFFFFFFFFFFFFFFFFFFFFFFFFFFFFFF SUB DUP3 GT ISZERO PUSH3 0x52C JUMPI PUSH3 0x52B PUSH3 0x692 JUMP JUMPDEST JUMPDEST DUP3 DUP3 ADD SWAP1 POP SWAP3 SWAP2 POP POP JUMP JUMPDEST PUSH1 0x0 PUSH3 0x544 DUP3 PUSH3 0x598 JUMP JUMPDEST SWAP2 POP PUSH3 0x551 DUP4 PUSH3 0x598 JUMP JUMPDEST SWAP3 POP DUP2 PUSH32 0xFFFFFFFFFFFFFFFFFFFFFFFFFFFFFFFFFFFFFFFFFFFFFFFFFFFFFFFFFFFFFFFF DIV DUP4 GT DUP3 ISZERO ISZERO AND ISZERO PUSH3 0x58D JUMPI PUSH3 0x58C PUSH3 0x692 JUMP JUMPDEST JUMPDEST DUP3 DUP3 MUL SWAP1 POP SWAP3 SWAP2 POP POP JUMP JUMPDEST PUSH1 0x0 DUP2 SWAP1 POP SWAP2 SWAP1 POP JUMP JUMPDEST PUSH1 0x0 JUMPDEST DUP4 DUP2 LT ISZERO PUSH3 0x5C2 JUMPI DUP1 DUP3 ADD MLOAD DUP2 DUP5 ADD MSTORE PUSH1 0x20 DUP2 ADD SWAP1 POP PUSH3 0x5A5 JUMP JUMPDEST DUP4 DUP2 GT ISZERO PUSH3 0x5D2 JUMPI PUSH1 0x0 DUP5 DUP5 ADD MSTORE JUMPDEST POP POP POP POP JUMP JUMPDEST PUSH1 0x0 PUSH1 0x2 DUP3 DIV SWAP1 POP PUSH1 0x1 DUP3 AND DUP1 PUSH3 0x5F1 JUMPI PUSH1 0x7F DUP3 AND SWAP2 POP JUMPDEST PUSH1 0x20 DUP3 LT DUP2 EQ ISZERO PUSH3 0x608 JUMPI PUSH3 0x607 PUSH3 0x6C1 JUMP JUMPDEST JUMPDEST POP SWAP2 SWAP1 POP JUMP JUMPDEST PUSH3 0x619 DUP3 PUSH3 0x767 JUMP JUMPDEST DUP2 ADD DUP2 DUP2 LT PUSH8 0xFFFFFFFFFFFFFFFF DUP3 GT OR ISZERO PUSH3 0x63B JUMPI PUSH3 0x63A PUSH3 0x71F JUMP JUMPDEST JUMPDEST DUP1 PUSH1 0x40 MSTORE POP POP POP JUMP JUMPDEST PUSH1 0x0 PUSH3 0x651 DUP3 PUSH3 0x598 JUMP JUMPDEST SWAP2 POP PUSH32 0xFFFFFFFFFFFFFFFFFFFFFFFFFFFFFFFFFFFFFFFFFFFFFFFFFFFFFFFFFFFFFFFF DUP3 EQ ISZERO PUSH3 0x687 JUMPI PUSH3 0x686 PUSH3 0x692 JUMP JUMPDEST JUMPDEST PUSH1 0x1 DUP3 ADD SWAP1 POP SWAP2 SWAP1 POP JUMP JUMPDEST PUSH32 0x4E487B7100000000000000000000000000000000000000000000000000000000 PUSH1 0x0 MSTORE PUSH1 0x11 PUSH1 0x4 MSTORE PUSH1 0x24 PUSH1 0x0 REVERT JUMPDEST PUSH32 0x4E487B7100000000000000000000000000000000000000000000000000000000 PUSH1 0x0 MSTORE PUSH1 0x22 PUSH1 0x4 MSTORE PUSH1 0x24 PUSH1 0x0 REVERT JUMPDEST PUSH32 0x4E487B7100000000000000000000000000000000000000000000000000000000 PUSH1 0x0 MSTORE PUSH1 0x32 PUSH1 0x4 MSTORE PUSH1 0x24 PUSH1 0x0 REVERT JUMPDEST PUSH32 0x4E487B7100000000000000000000000000000000000000000000000000000000 PUSH1 0x0 MSTORE PUSH1 0x41 PUSH1 0x4 MSTORE PUSH1 0x24 PUSH1 0x0 REVERT JUMPDEST PUSH1 0x0 DUP1 REVERT JUMPDEST PUSH1 0x0 DUP1 REVERT JUMPDEST PUSH1 0x0 DUP1 REVERT JUMPDEST PUSH1 0x0 DUP1 REVERT JUMPDEST PUSH1 0x0 DUP1 REVERT JUMPDEST PUSH1 0x0 PUSH1 0x1F NOT PUSH1 0x1F DUP4 ADD AND SWAP1 POP SWAP2 SWAP1 POP JUMP JUMPDEST PUSH3 0x783 DUP2 PUSH3 0x598 JUMP JUMPDEST DUP2 EQ PUSH3 0x78F JUMPI PUSH1 0x0 DUP1 REVERT JUMPDEST POP JUMP JUMPDEST PUSH2 0xFA6 DUP1 PUSH3 0x7A2 PUSH1 0x0 CODECOPY PUSH1 0x0 RETURN INVALID PUSH1 0x80 PUSH1 0x40 MSTORE CALLVALUE DUP1 ISZERO PUSH2 0x10 JUMPI PUSH1 0x0 DUP1 REVERT JUMPDEST POP PUSH1 0x4 CALLDATASIZE LT PUSH2 0x93 JUMPI PUSH1 0x0 CALLDATALOAD PUSH1 0xE0 SHR DUP1 PUSH4 0x581C281C GT PUSH2 0x66 JUMPI DUP1 PUSH4 0x581C281C EQ PUSH2 0x11F JUMPI DUP1 PUSH4 0x85A38635 EQ PUSH2 0x13D JUMPI DUP1 PUSH4 0x90A9AB90 EQ PUSH2 0x15B JUMPI DUP1 PUSH4 0xA3EC138D EQ PUSH2 0x179 JUMPI DUP1 PUSH4 0xEFB98BCF EQ PUSH2 0x1A9 JUMPI PUSH2 0x93 JUMP JUMPDEST DUP1 PUSH4 0x121B93F EQ PUSH2 0x98 JUMPI DUP1 PUSH4 0x101158AF EQ PUSH2 0xB4 JUMPI DUP1 PUSH4 0x3477EE2E EQ PUSH2 0xD2 JUMPI DUP1 PUSH4 0x462E91EC EQ PUSH2 0x103 JUMPI JUMPDEST PUSH1 0x0 DUP1 REVERT JUMPDEST PUSH2 0xB2 PUSH1 0x4 DUP1 CALLDATASIZE SUB DUP2 ADD SWAP1 PUSH2 0xAD SWAP2 SWAP1 PUSH2 0x84B JUMP JUMPDEST PUSH2 0x1C7 JUMP JUMPDEST STOP JUMPDEST PUSH2 0xBC PUSH2 0x331 JUMP JUMPDEST PUSH1 0x40 MLOAD PUSH2 0xC9 SWAP2 SWAP1 PUSH2 0xB56 JUMP JUMPDEST PUSH1 0x40 MLOAD DUP1 SWAP2 SUB SWAP1 RETURN JUMPDEST PUSH2 0xEC PUSH1 0x4 DUP1 CALLDATASIZE SUB DUP2 ADD SWAP1 PUSH2 0xE7 SWAP2 SWAP1 PUSH2 0x84B JUMP JUMPDEST PUSH2 0x337 JUMP JUMPDEST PUSH1 0x40 MLOAD PUSH2 0xFA SWAP3 SWAP2 SWAP1 PUSH2 0xAA6 JUMP JUMPDEST PUSH1 0x40 MLOAD DUP1 SWAP2 SUB SWAP1 RETURN JUMPDEST PUSH2 0x11D PUSH1 0x4 DUP1 CALLDATASIZE SUB DUP2 ADD SWAP1 PUSH2 0x118 SWAP2 SWAP1 PUSH2 0x802 JUMP JUMPDEST PUSH2 0x3F3 JUMP JUMPDEST STOP JUMPDEST PUSH2 0x127 PUSH2 0x4F0 JUMP JUMPDEST PUSH1 0x40 MLOAD PUSH2 0x134 SWAP2 SWAP1 PUSH2 0xA8B JUMP JUMPDEST PUSH1 0x40 MLOAD DUP1 SWAP2 SUB SWAP1 RETURN JUMPDEST PUSH2 0x145 PUSH2 0x50A JUMP JUMPDEST PUSH1 0x40 MLOAD PUSH2 0x152 SWAP2 SWAP1 PUSH2 0xB56 JUMP JUMPDEST PUSH1 0x40 MLOAD DUP1 SWAP2 SUB SWAP1 RETURN JUMPDEST PUSH2 0x163 PUSH2 0x510 JUMP JUMPDEST PUSH1 0x40 MLOAD PUSH2 0x170 SWAP2 SWAP1 PUSH2 0xA69 JUMP JUMPDEST PUSH1 0x40 MLOAD DUP1 SWAP2 SUB SWAP1 RETURN JUMPDEST PUSH2 0x193 PUSH1 0x4 DUP1 CALLDATASIZE SUB DUP2 ADD SWAP1 PUSH2 0x18E SWAP2 SWAP1 PUSH2 0x7D5 JUMP JUMPDEST PUSH2 0x60B JUMP JUMPDEST PUSH1 0x40 MLOAD PUSH2 0x1A0 SWAP2 SWAP1 PUSH2 0xA8B JUMP JUMPDEST PUSH1 0x40 MLOAD DUP1 SWAP2 SUB SWAP1 RETURN JUMPDEST PUSH2 0x1B1 PUSH2 0x62B JUMP JUMPDEST PUSH1 0x40 MLOAD PUSH2 0x1BE SWAP2 SWAP1 PUSH2 0xB56 JUMP JUMPDEST PUSH1 0x40 MLOAD DUP1 SWAP2 SUB SWAP1 RETURN JUMPDEST PUSH1 0x2 PUSH1 0x0 CALLER PUSH20 0xFFFFFFFFFFFFFFFFFFFFFFFFFFFFFFFFFFFFFFFF AND PUSH20 0xFFFFFFFFFFFFFFFFFFFFFFFFFFFFFFFFFFFFFFFF AND DUP2 MSTORE PUSH1 0x20 ADD SWAP1 DUP2 MSTORE PUSH1 0x20 ADD PUSH1 0x0 KECCAK256 PUSH1 0x0 SWAP1 SLOAD SWAP1 PUSH2 0x100 EXP SWAP1 DIV PUSH1 0xFF AND ISZERO PUSH2 0x254 JUMPI PUSH1 0x40 MLOAD PUSH32 0x8C379A000000000000000000000000000000000000000000000000000000000 DUP2 MSTORE PUSH1 0x4 ADD PUSH2 0x24B SWAP1 PUSH2 0xAD6 JUMP JUMPDEST PUSH1 0x40 MLOAD DUP1 SWAP2 SUB SWAP1 REVERT JUMPDEST PUSH1 0x0 DUP1 SLOAD SWAP1 POP DUP2 LT PUSH2 0x29B JUMPI PUSH1 0x40 MLOAD PUSH32 0x8C379A000000000000000000000000000000000000000000000000000000000 DUP2 MSTORE PUSH1 0x4 ADD PUSH2 0x292 SWAP1 PUSH2 0xAF6 JUMP JUMPDEST PUSH1 0x40 MLOAD DUP1 SWAP2 SUB SWAP1 REVERT JUMPDEST PUSH1 0x0 DUP2 DUP2 SLOAD DUP2 LT PUSH2 0x2AF JUMPI PUSH2 0x2AE PUSH2 0xDF5 JUMP JUMPDEST JUMPDEST SWAP1 PUSH1 0x0 MSTORE PUSH1 0x20 PUSH1 0x0 KECCAK256 SWAP1 PUSH1 0x2 MUL ADD PUSH1 0x1 ADD PUSH1 0x0 DUP2 SLOAD DUP1 SWAP3 SWAP2 SWAP1 PUSH2 0x2D1 SWAP1 PUSH2 0xD4E JUMP JUMPDEST SWAP2 SWAP1 POP SSTORE POP PUSH1 0x1 PUSH1 0x2 PUSH1 0x0 CALLER PUSH20 0xFFFFFFFFFFFFFFFFFFFFFFFFFFFFFFFFFFFFFFFF AND PUSH20 0xFFFFFFFFFFFFFFFFFFFFFFFFFFFFFFFFFFFFFFFF AND DUP2 MSTORE PUSH1 0x20 ADD SWAP1 DUP2 MSTORE PUSH1 0x20 ADD PUSH1 0x0 KECCAK256 PUSH1 0x0 PUSH2 0x100 EXP DUP2 SLOAD DUP2 PUSH1 0xFF MUL NOT AND SWAP1 DUP4 ISZERO ISZERO MUL OR SWAP1 SSTORE POP POP JUMP JUMPDEST PUSH1 0x3 SLOAD DUP2 JUMP JUMPDEST PUSH1 0x0 DUP2 DUP2 SLOAD DUP2 LT PUSH2 0x347 JUMPI PUSH1 0x0 DUP1 REVERT JUMPDEST SWAP1 PUSH1 0x0 MSTORE PUSH1 0x20 PUSH1 0x0 KECCAK256 SWAP1 PUSH1 0x2 MUL ADD PUSH1 0x0 SWAP2 POP SWAP1 POP DUP1 PUSH1 0x0 ADD DUP1 SLOAD PUSH2 0x36A SWAP1 PUSH2 0xCEB JUMP JUMPDEST DUP1 PUSH1 0x1F ADD PUSH1 0x20 DUP1 SWAP2 DIV MUL PUSH1 0x20 ADD PUSH1 0x40 MLOAD SWAP1 DUP2 ADD PUSH1 0x40 MSTORE DUP1 SWAP3 SWAP2 SWAP1 DUP2 DUP2 MSTORE PUSH1 0x20 ADD DUP3 DUP1 SLOAD PUSH2 0x396 SWAP1 PUSH2 0xCEB JUMP JUMPDEST DUP1 ISZERO PUSH2 0x3E3 JUMPI DUP1 PUSH1 0x1F LT PUSH2 0x3B8 JUMPI PUSH2 0x100 DUP1 DUP4 SLOAD DIV MUL DUP4 MSTORE SWAP2 PUSH1 0x20 ADD SWAP2 PUSH2 0x3E3 JUMP JUMPDEST DUP3 ADD SWAP2 SWAP1 PUSH1 0x0 MSTORE PUSH1 0x20 PUSH1 0x0 KECCAK256 SWAP1 JUMPDEST DUP2 SLOAD DUP2 MSTORE SWAP1 PUSH1 0x1 ADD SWAP1 PUSH1 0x20 ADD DUP1 DUP4 GT PUSH2 0x3C6 JUMPI DUP3 SWAP1 SUB PUSH1 0x1F AND DUP3 ADD SWAP2 JUMPDEST POP POP POP POP POP SWAP1 DUP1 PUSH1 0x1 ADD SLOAD SWAP1 POP DUP3 JUMP JUMPDEST PUSH1 0x1 PUSH1 0x0 SWAP1 SLOAD SWAP1 PUSH2 0x100 EXP SWAP1 DIV PUSH20 0xFFFFFFFFFFFFFFFFFFFFFFFFFFFFFFFFFFFFFFFF AND PUSH20 0xFFFFFFFFFFFFFFFFFFFFFFFFFFFFFFFFFFFFFFFF AND CALLER PUSH20 0xFFFFFFFFFFFFFFFFFFFFFFFFFFFFFFFFFFFFFFFF AND EQ PUSH2 0x483 JUMPI PUSH1 0x40 MLOAD PUSH32 0x8C379A000000000000000000000000000000000000000000000000000000000 DUP2 MSTORE PUSH1 0x4 ADD PUSH2 0x47A SWAP1 PUSH2 0xB16 JUMP JUMPDEST PUSH1 0x40 MLOAD DUP1 SWAP2 SUB SWAP1 REVERT JUMPDEST PUSH1 0x0 PUSH1 0x40 MLOAD DUP1 PUSH1 0x40 ADD PUSH1 0x40 MSTORE DUP1 DUP4 DUP2 MSTORE PUSH1 0x20 ADD PUSH1 0x0 DUP2 MSTORE POP SWAP1 DUP1 PUSH1 0x1 DUP2 SLOAD ADD DUP1 DUP3 SSTORE DUP1 SWAP2 POP POP PUSH1 0x1 SWAP1 SUB SWAP1 PUSH1 0x0 MSTORE PUSH1 0x20 PUSH1 0x0 KECCAK256 SWAP1 PUSH1 0x2 MUL ADD PUSH1 0x0 SWAP1 SWAP2 SWAP1 SWAP2 SWAP1 SWAP2 POP PUSH1 0x0 DUP3 ADD MLOAD DUP2 PUSH1 0x0 ADD SWAP1 DUP1 MLOAD SWAP1 PUSH1 0x20 ADD SWAP1 PUSH2 0x4E0 SWAP3 SWAP2 SWAP1 PUSH2 0x698 JUMP JUMPDEST POP PUSH1 0x20 DUP3 ADD MLOAD DUP2 PUSH1 0x1 ADD SSTORE POP POP POP JUMP JUMPDEST PUSH1 0x0 PUSH1 0x3 SLOAD TIMESTAMP LT ISZERO DUP1 ISZERO PUSH2 0x505 JUMPI POP PUSH1 0x4 SLOAD TIMESTAMP LT JUMPDEST SWAP1 POP SWAP1 JUMP JUMPDEST PUSH1 0x4 SLOAD DUP2 JUMP JUMPDEST PUSH1 0x60 PUSH1 0x0 DUP1 SLOAD DUP1 PUSH1 0x20 MUL PUSH1 0x20 ADD PUSH1 0x40 MLOAD SWAP1 DUP2 ADD PUSH1 0x40 MSTORE DUP1 SWAP3 SWAP2 SWAP1 DUP2 DUP2 MSTORE PUSH1 0x20 ADD PUSH1 0x0 SWAP1 JUMPDEST DUP3 DUP3 LT ISZERO PUSH2 0x602 JUMPI DUP4 DUP3 SWAP1 PUSH1 0x0 MSTORE PUSH1 0x20 PUSH1 0x0 KECCAK256 SWAP1 PUSH1 0x2 MUL ADD PUSH1 0x40 MLOAD DUP1 PUSH1 0x40 ADD PUSH1 0x40 MSTORE SWAP1 DUP2 PUSH1 0x0 DUP3 ADD DUP1 SLOAD PUSH2 0x567 SWAP1 PUSH2 0xCEB JUMP JUMPDEST DUP1 PUSH1 0x1F ADD PUSH1 0x20 DUP1 SWAP2 DIV MUL PUSH1 0x20 ADD PUSH1 0x40 MLOAD SWAP1 DUP2 ADD PUSH1 0x40 MSTORE DUP1 SWAP3 SWAP2 SWAP1 DUP2 DUP2 MSTORE PUSH1 0x20 ADD DUP3 DUP1 SLOAD PUSH2 0x593 SWAP1 PUSH2 0xCEB JUMP JUMPDEST DUP1 ISZERO PUSH2 0x5E0 JUMPI DUP1 PUSH1 0x1F LT PUSH2 0x5B5 JUMPI PUSH2 0x100 DUP1 DUP4 SLOAD DIV MUL DUP4 MSTORE SWAP2 PUSH1 0x20 ADD SWAP2 PUSH2 0x5E0 JUMP JUMPDEST DUP3 ADD SWAP2 SWAP1 PUSH1 0x0 MSTORE PUSH1 0x20 PUSH1 0x0 KECCAK256 SWAP1 JUMPDEST DUP2 SLOAD DUP2 MSTORE SWAP1 PUSH1 0x1 ADD SWAP1 PUSH1 0x20 ADD DUP1 DUP4 GT PUSH2 0x5C3 JUMPI DUP3 SWAP1 SUB PUSH1 0x1F AND DUP3 ADD SWAP2 JUMPDEST POP POP POP POP POP DUP2 MSTORE PUSH1 0x20 ADD PUSH1 0x1 DUP3 ADD SLOAD DUP2 MSTORE POP POP DUP2 MSTORE PUSH1 0x20 ADD SWAP1 PUSH1 0x1 ADD SWAP1 PUSH2 0x534 JUMP JUMPDEST POP POP POP POP SWAP1 POP SWAP1 JUMP JUMPDEST PUSH1 0x2 PUSH1 0x20 MSTORE DUP1 PUSH1 0x0 MSTORE PUSH1 0x40 PUSH1 0x0 KECCAK256 PUSH1 0x0 SWAP2 POP SLOAD SWAP1 PUSH2 0x100 EXP SWAP1 DIV PUSH1 0xFF AND DUP2 JUMP JUMPDEST PUSH1 0x0 PUSH1 0x3 SLOAD TIMESTAMP LT ISZERO PUSH2 0x672 JUMPI PUSH1 0x40 MLOAD PUSH32 0x8C379A000000000000000000000000000000000000000000000000000000000 DUP2 MSTORE PUSH1 0x4 ADD PUSH2 0x669 SWAP1 PUSH2 0xB36 JUMP JUMPDEST PUSH1 0x40 MLOAD DUP1 SWAP2 SUB SWAP1 REVERT JUMPDEST PUSH1 0x4 SLOAD TIMESTAMP LT PUSH2 0x684 JUMPI PUSH1 0x0 SWAP1 POP PUSH2 0x695 JUMP JUMPDEST TIMESTAMP PUSH1 0x4 SLOAD PUSH2 0x692 SWAP2 SWAP1 PUSH2 0xC2D JUMP JUMPDEST SWAP1 POP JUMPDEST SWAP1 JUMP JUMPDEST DUP3 DUP1 SLOAD PUSH2 0x6A4 SWAP1 PUSH2 0xCEB JUMP JUMPDEST SWAP1 PUSH1 0x0 MSTORE PUSH1 0x20 PUSH1 0x0 KECCAK256 SWAP1 PUSH1 0x1F ADD PUSH1 0x20 SWAP1 DIV DUP2 ADD SWAP3 DUP3 PUSH2 0x6C6 JUMPI PUSH1 0x0 DUP6 SSTORE PUSH2 0x70D JUMP JUMPDEST DUP3 PUSH1 0x1F LT PUSH2 0x6DF JUMPI DUP1 MLOAD PUSH1 0xFF NOT AND DUP4 DUP1 ADD OR DUP6 SSTORE PUSH2 0x70D JUMP JUMPDEST DUP3 DUP1 ADD PUSH1 0x1 ADD DUP6 SSTORE DUP3 ISZERO PUSH2 0x70D JUMPI SWAP2 DUP3 ADD JUMPDEST DUP3 DUP2 GT ISZERO PUSH2 0x70C JUMPI DUP3 MLOAD DUP3 SSTORE SWAP2 PUSH1 0x20 ADD SWAP2 SWAP1 PUSH1 0x1 ADD SWAP1 PUSH2 0x6F1 JUMP JUMPDEST JUMPDEST POP SWAP1 POP PUSH2 0x71A SWAP2 SWAP1 PUSH2 0x71E JUMP JUMPDEST POP SWAP1 JUMP JUMPDEST JUMPDEST DUP1 DUP3 GT ISZERO PUSH2 0x737 JUMPI PUSH1 0x0 DUP2 PUSH1 0x0 SWAP1 SSTORE POP PUSH1 0x1 ADD PUSH2 0x71F JUMP JUMPDEST POP SWAP1 JUMP JUMPDEST PUSH1 0x0 PUSH2 0x74E PUSH2 0x749 DUP5 PUSH2 0xB96 JUMP JUMPDEST PUSH2 0xB71 JUMP JUMPDEST SWAP1 POP DUP3 DUP2 MSTORE PUSH1 0x20 DUP2 ADD DUP5 DUP5 DUP5 ADD GT ISZERO PUSH2 0x76A JUMPI PUSH2 0x769 PUSH2 0xE58 JUMP JUMPDEST JUMPDEST PUSH2 0x775 DUP5 DUP3 DUP6 PUSH2 0xCA9 JUMP JUMPDEST POP SWAP4 SWAP3 POP POP POP JUMP JUMPDEST PUSH1 0x0 DUP2 CALLDATALOAD SWAP1 POP PUSH2 0x78C DUP2 PUSH2 0xF42 JUMP JUMPDEST SWAP3 SWAP2 POP POP JUMP JUMPDEST PUSH1 0x0 DUP3 PUSH1 0x1F DUP4 ADD SLT PUSH2 0x7A7 JUMPI PUSH2 0x7A6 PUSH2 0xE53 JUMP JUMPDEST JUMPDEST DUP2 CALLDATALOAD PUSH2 0x7B7 DUP5 DUP3 PUSH1 0x20 DUP7 ADD PUSH2 0x73B JUMP JUMPDEST SWAP2 POP POP SWAP3 SWAP2 POP POP JUMP JUMPDEST PUSH1 0x0 DUP2 CALLDATALOAD SWAP1 POP PUSH2 0x7CF DUP2 PUSH2 0xF59 JUMP JUMPDEST SWAP3 SWAP2 POP POP JUMP JUMPDEST PUSH1 0x0 PUSH1 0x20 DUP3 DUP5 SUB SLT ISZERO PUSH2 0x7EB JUMPI PUSH2 0x7EA PUSH2 0xE62 JUMP JUMPDEST JUMPDEST PUSH1 0x0 PUSH2 0x7F9 DUP5 DUP3 DUP6 ADD PUSH2 0x77D JUMP JUMPDEST SWAP2 POP POP SWAP3 SWAP2 POP POP JUMP JUMPDEST PUSH1 0x0 PUSH1 0x20 DUP3 DUP5 SUB SLT ISZERO PUSH2 0x818 JUMPI PUSH2 0x817 PUSH2 0xE62 JUMP JUMPDEST JUMPDEST PUSH1 0x0 DUP3 ADD CALLDATALOAD PUSH8 0xFFFFFFFFFFFFFFFF DUP2 GT ISZERO PUSH2 0x836 JUMPI PUSH2 0x835 PUSH2 0xE5D JUMP JUMPDEST JUMPDEST PUSH2 0x842 DUP5 DUP3 DUP6 ADD PUSH2 0x792 JUMP JUMPDEST SWAP2 POP POP SWAP3 SWAP2 POP POP JUMP JUMPDEST PUSH1 0x0 PUSH1 0x20 DUP3 DUP5 SUB SLT ISZERO PUSH2 0x861 JUMPI PUSH2 0x860 PUSH2 0xE62 JUMP JUMPDEST JUMPDEST PUSH1 0x0 PUSH2 0x86F DUP5 DUP3 DUP6 ADD PUSH2 0x7C0 JUMP JUMPDEST SWAP2 POP POP SWAP3 SWAP2 POP POP JUMP JUMPDEST PUSH1 0x0 PUSH2 0x884 DUP4 DUP4 PUSH2 0xA0E JUMP JUMPDEST SWAP1 POP SWAP3 SWAP2 POP POP JUMP JUMPDEST PUSH1 0x0 PUSH2 0x897 DUP3 PUSH2 0xBD7 JUMP JUMPDEST PUSH2 0x8A1 DUP2 DUP6 PUSH2 0xBFA JUMP JUMPDEST SWAP4 POP DUP4 PUSH1 0x20 DUP3 MUL DUP6 ADD PUSH2 0x8B3 DUP6 PUSH2 0xBC7 JUMP JUMPDEST DUP1 PUSH1 0x0 JUMPDEST DUP6 DUP2 LT ISZERO PUSH2 0x8EF JUMPI DUP5 DUP5 SUB DUP10 MSTORE DUP2 MLOAD PUSH2 0x8D0 DUP6 DUP3 PUSH2 0x878 JUMP JUMPDEST SWAP5 POP PUSH2 0x8DB DUP4 PUSH2 0xBED JUMP JUMPDEST SWAP3 POP PUSH1 0x20 DUP11 ADD SWAP10 POP POP PUSH1 0x1 DUP2 ADD SWAP1 POP PUSH2 0x8B7 JUMP JUMPDEST POP DUP3 SWAP8 POP DUP8 SWAP6 POP POP POP POP POP POP SWAP3 SWAP2 POP POP JUMP JUMPDEST PUSH2 0x90A DUP2 PUSH2 0xC73 JUMP JUMPDEST DUP3 MSTORE POP POP JUMP JUMPDEST PUSH1 0x0 PUSH2 0x91B DUP3 PUSH2 0xBE2 JUMP JUMPDEST PUSH2 0x925 DUP2 DUP6 PUSH2 0xC0B JUMP JUMPDEST SWAP4 POP PUSH2 0x935 DUP2 DUP6 PUSH1 0x20 DUP7 ADD PUSH2 0xCB8 JUMP JUMPDEST PUSH2 0x93E DUP2 PUSH2 0xE67 JUMP JUMPDEST DUP5 ADD SWAP2 POP POP SWAP3 SWAP2 POP POP JUMP JUMPDEST PUSH1 0x0 PUSH2 0x954 DUP3 PUSH2 0xBE2 JUMP JUMPDEST PUSH2 0x95E DUP2 DUP6 PUSH2 0xC1C JUMP JUMPDEST SWAP4 POP PUSH2 0x96E DUP2 DUP6 PUSH1 0x20 DUP7 ADD PUSH2 0xCB8 JUMP JUMPDEST PUSH2 0x977 DUP2 PUSH2 0xE67 JUMP JUMPDEST DUP5 ADD SWAP2 POP POP SWAP3 SWAP2 POP POP JUMP JUMPDEST PUSH1 0x0 PUSH2 0x98F PUSH1 0x17 DUP4 PUSH2 0xC1C JUMP JUMPDEST SWAP2 POP PUSH2 0x99A DUP3 PUSH2 0xE78 JUMP JUMPDEST PUSH1 0x20 DUP3 ADD SWAP1 POP SWAP2 SWAP1 POP JUMP JUMPDEST PUSH1 0x0 PUSH2 0x9B2 PUSH1 0x18 DUP4 PUSH2 0xC1C JUMP JUMPDEST SWAP2 POP PUSH2 0x9BD DUP3 PUSH2 0xEA1 JUMP JUMPDEST PUSH1 0x20 DUP3 ADD SWAP1 POP SWAP2 SWAP1 POP JUMP JUMPDEST PUSH1 0x0 PUSH2 0x9D5 PUSH1 0x2F DUP4 PUSH2 0xC1C JUMP JUMPDEST SWAP2 POP PUSH2 0x9E0 DUP3 PUSH2 0xECA JUMP JUMPDEST PUSH1 0x40 DUP3 ADD SWAP1 POP SWAP2 SWAP1 POP JUMP JUMPDEST PUSH1 0x0 PUSH2 0x9F8 PUSH1 0x1B DUP4 PUSH2 0xC1C JUMP JUMPDEST SWAP2 POP PUSH2 0xA03 DUP3 PUSH2 0xF19 JUMP JUMPDEST PUSH1 0x20 DUP3 ADD SWAP1 POP SWAP2 SWAP1 POP JUMP JUMPDEST PUSH1 0x0 PUSH1 0x40 DUP4 ADD PUSH1 0x0 DUP4 ADD MLOAD DUP5 DUP3 SUB PUSH1 0x0 DUP7 ADD MSTORE PUSH2 0xA2B DUP3 DUP3 PUSH2 0x910 JUMP JUMPDEST SWAP2 POP POP PUSH1 0x20 DUP4 ADD MLOAD PUSH2 0xA40 PUSH1 0x20 DUP7 ADD DUP3 PUSH2 0xA4B JUMP JUMPDEST POP DUP1 SWAP2 POP POP SWAP3 SWAP2 POP POP JUMP JUMPDEST PUSH2 0xA54 DUP2 PUSH2 0xC9F JUMP JUMPDEST DUP3 MSTORE POP POP JUMP JUMPDEST PUSH2 0xA63 DUP2 PUSH2 0xC9F JUMP JUMPDEST DUP3 MSTORE POP POP JUMP JUMPDEST PUSH1 0x0 PUSH1 0x20 DUP3 ADD SWAP1 POP DUP2 DUP2 SUB PUSH1 0x0 DUP4 ADD MSTORE PUSH2 0xA83 DUP2 DUP5 PUSH2 0x88C JUMP JUMPDEST SWAP1 POP SWAP3 SWAP2 POP POP JUMP JUMPDEST PUSH1 0x0 PUSH1 0x20 DUP3 ADD SWAP1 POP PUSH2 0xAA0 PUSH1 0x0 DUP4 ADD DUP5 PUSH2 0x901 JUMP JUMPDEST SWAP3 SWAP2 POP POP JUMP JUMPDEST PUSH1 0x0 PUSH1 0x40 DUP3 ADD SWAP1 POP DUP2 DUP2 SUB PUSH1 0x0 DUP4 ADD MSTORE PUSH2 0xAC0 DUP2 DUP6 PUSH2 0x949 JUMP JUMPDEST SWAP1 POP PUSH2 0xACF PUSH1 0x20 DUP4 ADD DUP5 PUSH2 0xA5A JUMP JUMPDEST SWAP4 SWAP3 POP POP POP JUMP JUMPDEST PUSH1 0x0 PUSH1 0x20 DUP3 ADD SWAP1 POP DUP2 DUP2 SUB PUSH1 0x0 DUP4 ADD MSTORE PUSH2 0xAEF DUP2 PUSH2 0x982 JUMP JUMPDEST SWAP1 POP SWAP2 SWAP1 POP JUMP JUMPDEST PUSH1 0x0 PUSH1 0x20 DUP3 ADD SWAP1 POP DUP2 DUP2 SUB PUSH1 0x0 DUP4 ADD MSTORE PUSH2 0xB0F DUP2 PUSH2 0x9A5 JUMP JUMPDEST SWAP1 POP SWAP2 SWAP1 POP JUMP JUMPDEST PUSH1 0x0 PUSH1 0x20 DUP3 ADD SWAP1 POP DUP2 DUP2 SUB PUSH1 0x0 DUP4 ADD MSTORE PUSH2 0xB2F DUP2 PUSH2 0x9C8 JUMP JUMPDEST SWAP1 POP SWAP2 SWAP1 POP JUMP JUMPDEST PUSH1 0x0 PUSH1 0x20 DUP3 ADD SWAP1 POP DUP2 DUP2 SUB PUSH1 0x0 DUP4 ADD MSTORE PUSH2 0xB4F DUP2 PUSH2 0x9EB JUMP JUMPDEST SWAP1 POP SWAP2 SWAP1 POP JUMP JUMPDEST PUSH1 0x0 PUSH1 0x20 DUP3 ADD SWAP1 POP PUSH2 0xB6B PUSH1 0x0 DUP4 ADD DUP5 PUSH2 0xA5A JUMP JUMPDEST SWAP3 SWAP2 POP POP JUMP JUMPDEST PUSH1 0x0 PUSH2 0xB7B PUSH2 0xB8C JUMP JUMPDEST SWAP1 POP PUSH2 0xB87 DUP3 DUP3 PUSH2 0xD1D JUMP JUMPDEST SWAP2 SWAP1 POP JUMP JUMPDEST PUSH1 0x0 PUSH1 0x40 MLOAD SWAP1 POP SWAP1 JUMP JUMPDEST PUSH1 0x0 PUSH8 0xFFFFFFFFFFFFFFFF DUP3 GT ISZERO PUSH2 0xBB1 JUMPI PUSH2 0xBB0 PUSH2 0xE24 JUMP JUMPDEST JUMPDEST PUSH2 0xBBA DUP3 PUSH2 0xE67 JUMP JUMPDEST SWAP1 POP PUSH1 0x20 DUP2 ADD SWAP1 POP SWAP2 SWAP1 POP JUMP JUMPDEST PUSH1 0x0 DUP2 SWAP1 POP PUSH1 0x20 DUP3 ADD SWAP1 POP SWAP2 SWAP1 POP JUMP JUMPDEST PUSH1 0x0 DUP2 MLOAD SWAP1 POP SWAP2 SWAP1 POP JUMP JUMPDEST PUSH1 0x0 DUP2 MLOAD SWAP1 POP SWAP2 SWAP1 POP JUMP JUMPDEST PUSH1 0x0 PUSH1 0x20 DUP3 ADD SWAP1 POP SWAP2 SWAP1 POP JUMP JUMPDEST PUSH1 0x0 DUP3 DUP3 MSTORE PUSH1 0x20 DUP3 ADD SWAP1 POP SWAP3 SWAP2 POP POP JUMP JUMPDEST PUSH1 0x0 DUP3 DUP3 MSTORE PUSH1 0x20 DUP3 ADD SWAP1 POP SWAP3 SWAP2 POP POP JUMP JUMPDEST PUSH1 0x0 DUP3 DUP3 MSTORE PUSH1 0x20 DUP3 ADD SWAP1 POP SWAP3 SWAP2 POP POP JUMP JUMPDEST PUSH1 0x0 PUSH2 0xC38 DUP3 PUSH2 0xC9F JUMP JUMPDEST SWAP2 POP PUSH2 0xC43 DUP4 PUSH2 0xC9F JUMP JUMPDEST SWAP3 POP DUP3 DUP3 LT ISZERO PUSH2 0xC56 JUMPI PUSH2 0xC55 PUSH2 0xD97 JUMP JUMPDEST JUMPDEST DUP3 DUP3 SUB SWAP1 POP SWAP3 SWAP2 POP POP JUMP JUMPDEST PUSH1 0x0 PUSH2 0xC6C DUP3 PUSH2 0xC7F JUMP JUMPDEST SWAP1 POP SWAP2 SWAP1 POP JUMP JUMPDEST PUSH1 0x0 DUP2 ISZERO ISZERO SWAP1 POP SWAP2 SWAP1 POP JUMP JUMPDEST PUSH1 0x0 PUSH20 0xFFFFFFFFFFFFFFFFFFFFFFFFFFFFFFFFFFFFFFFF DUP3 AND SWAP1 POP SWAP2 SWAP1 POP JUMP JUMPDEST PUSH1 0x0 DUP2 SWAP1 POP SWAP2 SWAP1 POP JUMP JUMPDEST DUP3 DUP2 DUP4 CALLDATACOPY PUSH1 0x0 DUP4 DUP4 ADD MSTORE POP POP POP JUMP JUMPDEST PUSH1 0x0 JUMPDEST DUP4 DUP2 LT ISZERO PUSH2 0xCD6 JUMPI DUP1 DUP3 ADD MLOAD DUP2 DUP5 ADD MSTORE PUSH1 0x20 DUP2 ADD SWAP1 POP PUSH2 0xCBB JUMP JUMPDEST DUP4 DUP2 GT ISZERO PUSH2 0xCE5 JUMPI PUSH1 0x0 DUP5 DUP5 ADD MSTORE JUMPDEST POP POP POP POP JUMP JUMPDEST PUSH1 0x0 PUSH1 0x2 DUP3 DIV SWAP1 POP PUSH1 0x1 DUP3 AND DUP1 PUSH2 0xD03 JUMPI PUSH1 0x7F DUP3 AND SWAP2 POP JUMPDEST PUSH1 0x20 DUP3 LT DUP2 EQ ISZERO PUSH2 0xD17 JUMPI PUSH2 0xD16 PUSH2 0xDC6 JUMP JUMPDEST JUMPDEST POP SWAP2 SWAP1 POP JUMP JUMPDEST PUSH2 0xD26 DUP3 PUSH2 0xE67 JUMP JUMPDEST DUP2 ADD DUP2 DUP2 LT PUSH8 0xFFFFFFFFFFFFFFFF DUP3 GT OR ISZERO PUSH2 0xD45 JUMPI PUSH2 0xD44 PUSH2 0xE24 JUMP JUMPDEST JUMPDEST DUP1 PUSH1 0x40 MSTORE POP POP POP JUMP JUMPDEST PUSH1 0x0 PUSH2 0xD59 DUP3 PUSH2 0xC9F JUMP JUMPDEST SWAP2 POP PUSH32 0xFFFFFFFFFFFFFFFFFFFFFFFFFFFFFFFFFFFFFFFFFFFFFFFFFFFFFFFFFFFFFFFF DUP3 EQ ISZERO PUSH2 0xD8C JUMPI PUSH2 0xD8B PUSH2 0xD97 JUMP JUMPDEST JUMPDEST PUSH1 0x1 DUP3 ADD SWAP1 POP SWAP2 SWAP1 POP JUMP JUMPDEST PUSH32 0x4E487B7100000000000000000000000000000000000000000000000000000000 PUSH1 0x0 MSTORE PUSH1 0x11 PUSH1 0x4 MSTORE PUSH1 0x24 PUSH1 0x0 REVERT JUMPDEST PUSH32 0x4E487B7100000000000000000000000000000000000000000000000000000000 PUSH1 0x0 MSTORE PUSH1 0x22 PUSH1 0x4 MSTORE PUSH1 0x24 PUSH1 0x0 REVERT JUMPDEST PUSH32 0x4E487B7100000000000000000000000000000000000000000000000000000000 PUSH1 0x0 MSTORE PUSH1 0x32 PUSH1 0x4 MSTORE PUSH1 0x24 PUSH1 0x0 REVERT JUMPDEST PUSH32 0x4E487B7100000000000000000000000000000000000000000000000000000000 PUSH1 0x0 MSTORE PUSH1 0x41 PUSH1 0x4 MSTORE PUSH1 0x24 PUSH1 0x0 REVERT JUMPDEST PUSH1 0x0 DUP1 REVERT JUMPDEST PUSH1 0x0 DUP1 REVERT JUMPDEST PUSH1 0x0 DUP1 REVERT JUMPDEST PUSH1 0x0 DUP1 REVERT JUMPDEST PUSH1 0x0 PUSH1 0x1F NOT PUSH1 0x1F DUP4 ADD AND SWAP1 POP SWAP2 SWAP1 POP JUMP JUMPDEST PUSH32 0x596F75206861766520616C726561647920766F7465642E000000000000000000 PUSH1 0x0 DUP3 ADD MSTORE POP JUMP JUMPDEST PUSH32 0x496E76616C69642063616E64696461746520696E6465782E0000000000000000 PUSH1 0x0 DUP3 ADD MSTORE POP JUMP JUMPDEST PUSH32 0x4F6E6C792074686520636F6E7472616374206F776E65722063616E2063616C6C PUSH1 0x0 DUP3 ADD MSTORE PUSH32 0x20746869732066756E6374696F6E2E0000000000000000000000000000000000 PUSH1 0x20 DUP3 ADD MSTORE POP JUMP JUMPDEST PUSH32 0x566F74696E6720686173206E6F742073746172746564207965742E0000000000 PUSH1 0x0 DUP3 ADD MSTORE POP JUMP JUMPDEST PUSH2 0xF4B DUP2 PUSH2 0xC61 JUMP JUMPDEST DUP2 EQ PUSH2 0xF56 JUMPI PUSH1 0x0 DUP1 REVERT JUMPDEST POP JUMP JUMPDEST PUSH2 0xF62 DUP2 PUSH2 0xC9F JUMP JUMPDEST DUP2 EQ PUSH2 0xF6D JUMPI PUSH1 0x0 DUP1 REVERT JUMPDEST POP JUMP INVALID LOG2 PUSH5 0x6970667358 0x22 SLT KECCAK256 JUMPI STATICCALL LOG2 PUSH26 0x5DE045495E4C0029E83DE34CD5B9CBE253C5385B660060980572 SWAP4 0xB7 PUSH5 0x736F6C6343 STOP ADDMOD SMOD STOP CALLER "},"gasEstimates":{"creation":{"codeDepositCost":"801200","executionCost":"infinite","totalCost":"infinite"},"external":{"addCandidate(string)":"infinite","candidates(uint256)":"infinite","getAllVotesOfCandidates()":"infinite","getRemainingTime()":"infinite","getVotingStatus()":"4581","vote(uint256)":"infinite","voters(address)":"2911","votingEnd()":"2451","votingStart()":"2452"}},"methodIdentifiers":{"addCandidate(string)":"462e91ec","candidates(uint256)":"3477ee2e","getAllVotesOfCandidates()":"90a9ab90","getRemainingTime()":"efb98bcf","getVotingStatus()":"581c281c","vote(uint256)":"0121b93f","voters(address)":"a3ec138d","votingEnd()":"85a38635","votingStart()":"101158af"}},"storageLayout":{"storage":[{"astId":10,"contract":"contracts/Voting.sol:Voting","label":"candidates","offset":0,"slot":"0","type":"t_array(t_struct(Candidate)6_storage)dyn_storage"},{"astId":12,"contract":"contracts/Voting.sol:Voting","label":"owner","offset":0,"slot":"1","type":"t_address"},{"astId":16,"contract":"contracts/Voting.sol:Voting","label":"voters","offset":0,"slot":"2","type":"t_mapping(t_address,t_bool)"},{"astId":18,"contract":"contracts/Voting.sol:Voting","label":"votingStart","offset":0,"slot":"3","type":"t_uint256"},{"astId":20,"contract":"contracts/Voting.sol:Voting","label":"votingEnd","offset":0,"slot":"4","type":"t_uint256"}],"types":{"t_address":{"encoding":"inplace","label":"address","numberOfBytes":"20"},"t_array(t_struct(Candidate)6_storage)dyn_storage":{"base":"t_struct(Candidate)6_storage","encoding":"dynamic_array","label":"struct Voting.Candidate[]","numberOfBytes":"32"},"t_bool":{"encoding":"inplace","label":"bool","numberOfBytes":"1"},"t_mapping(t_address,t_bool)":{"encoding":"mapping","key":"t_address","label":"mapping(address => bool)","numberOfBytes":"32","value":"t_bool"},"t_string_storage":{"encoding":"bytes","label":"string","numberOfBytes":"32"},"t_struct(Candidate)6_storage":{"encoding":"inplace","label":"struct Voting.Candidate","members":[{"astId":3,"contract":"contracts/Voting.sol:Voting","label":"name","offset":0,"slot":"0","type":"t_string_storage"},{"astId":5,"contract":"contracts/Voting.sol:Voting","label":"voteCount","offset":0,"slot":"1","type":"t_uint256"}],"numberOfBytes":"64"},"t_uint256":{"encoding":"inplace","label":"uint256","numberOfBytes":"32"}}},"userdoc":{"kind":"user","methods":{},"version":1}}}}