{
  "_format": "hh-sol-artifact-1",
  "contractName": "Voting",
  "sourceName": "contracts/Voting.sol",
  "abi": [
    {
      "inputs": [
        {
          "internalType": "string[]",
          "name": "_candidateNames",
          "type": "string[]"
        },
        {
          "internalType": "uint256",
          "name": "_durationInMinutes",
          "type": "uint256"
        }
      ],
      "stateMutability": "nonpayable",
      "type": "constructor"
    },
    {
      "inputs": [
        {
          "internalType": "string",
          "name": "_name",
          "type": "string"
        }
      ],
      "name": "addCandidate",
      "outputs": [],
      "stateMutability": "nonpayable",
      "type": "function"
    },
    {
      "inputs": [
        {
          "internalType": "uint256",
          "name": "",
          "type": "uint256"
        }
      ],
      "name": "candidates",
      "outputs": [
        {
          "internalType": "string",
          "name": "name",
          "type": "string"
        },
        {
          "internalType": "uint256",
          "name": "voteCount",
          "type": "uint256"
        }
      ],
      "stateMutability": "view",
      "type": "function"
    },
    {
      "inputs": [],
      "name": "getAllVotesOfCandidates",
      "outputs": [
        {
          "components": [
            {
              "internalType": "string",
              "name": "name",
              "type": "string"
            },
            {
              "internalType": "uint256",
              "name": "voteCount",
              "type": "uint256"
            }
          ],
          "internalType": "struct Voting.Candidate[]",
          "name": "",
          "type": "tuple[]"
        }
      ],
      "stateMutability": "view",
      "type": "function"
    },
    {
      "inputs": [],
      "name": "getRemainingTime",
      "outputs": [
        {
          "internalType": "uint256",
          "name": "",
          "type": "uint256"
        }
      ],
      "stateMutability": "view",
      "type": "function"
    },
    {
      "inputs": [],
      "name": "getVotingStatus",
      "outputs": [
        {
          "internalType": "bool",
          "name": "",
          "type": "bool"
        }
      ],
      "stateMutability": "view",
      "type": "function"
    },
    {
      "inputs": [
        {
          "internalType": "uint256",
          "name": "_candidateIndex",
          "type": "uint256"
        }
      ],
      "name": "vote",
      "outputs": [],
      "stateMutability": "nonpayable",
      "type": "function"
    },
    {
      "inputs": [
        {
          "internalType": "address",
          "name": "",
          "type": "address"
        }
      ],
      "name": "voters",
      "outputs": [
        {
          "internalType": "bool",
          "name": "",
          "type": "bool"
        }
      ],
      "stateMutability": "view",
      "type": "function"
    },
    {
      "inputs": [],
      "name": "votingEnd",
      "outputs": [
        {
          "internalType": "uint256",
          "name": "",
          "type": "uint256"
        }
      ],
      "stateMutability": "view",
      "type": "function"
    },
    {
      "inputs": [],
      "name": "votingStart",
      "outputs": [
        {
          "internalType": "uint256",
          "name": "",
          "type": "uint256"
        }
      ],
      "stateMutability": "view",
      "type": "function"
    }
  ],
  "bytecode": "0x60806040523480156200001157600080fd5b5060405162001748380380620017488339818101604052810190620000379190620003e6565b60005b8251811015620000e35760006040518060400160405280858481518110620000675762000066620006f0565b5b60200260200101518152602001600081525090806001815401808255809150506001900390600052602060002090600202016000909190919091506000820151816000019080519060200190620000c0929190620001d2565b506020820151816001015550508080620000da9062000644565b9150506200003a565b5033600160006101000a81548173ffffffffffffffffffffffffffffffffffffffff021916908373ffffffffffffffffffffffffffffffffffffffff16021790555042600381905550603c816200013b919062000537565b42620001489190620004da565b60048190555060005b8251811015620001c9576000600260003373ffffffffffffffffffffffffffffffffffffffff1673ffffffffffffffffffffffffffffffffffffffff16815260200190815260200160002060006101000a81548160ff0219169083151502179055508080620001c09062000644565b91505062000151565b50505062000792565b828054620001e090620005d8565b90600052602060002090601f01602090048101928262000204576000855562000250565b82601f106200021f57805160ff191683800117855562000250565b8280016001018555821562000250579182015b828111156200024f57825182559160200191906001019062000232565b5b5090506200025f919062000263565b5090565b5b808211156200027e57600081600090555060010162000264565b5090565b600062000299620002938462000475565b6200044c565b90508083825260208201905082856020860282011115620002bf57620002be62000753565b5b60005b858110156200031457815167ffffffffffffffff811115620002e957620002e86200074e565b5b808601620002f889826200039c565b85526020850194506020840193505050600181019050620002c2565b5050509392505050565b6000620003356200032f84620004a4565b6200044c565b90508281526020810184848401111562000354576200035362000758565b5b62000361848285620005a2565b509392505050565b600082601f8301126200038157620003806200074e565b5b81516200039384826020860162000282565b91505092915050565b600082601f830112620003b457620003b36200074e565b5b8151620003c68482602086016200031e565b91505092915050565b600081519050620003e08162000778565b92915050565b600080604083850312156200040057620003ff62000762565b5b600083015167ffffffffffffffff8111156200042157620004206200075d565b5b6200042f8582860162000369565b92505060206200044285828601620003cf565b9150509250929050565b6000620004586200046b565b90506200046682826200060e565b919050565b6000604051905090565b600067ffffffffffffffff8211156200049357620004926200071f565b5b602082029050602081019050919050565b600067ffffffffffffffff821115620004c257620004c16200071f565b5b620004cd8262000767565b9050602081019050919050565b6000620004e78262000598565b9150620004f48362000598565b9250827fffffffffffffffffffffffffffffffffffffffffffffffffffffffffffffffff038211156200052c576200052b62000692565b5b828201905092915050565b6000620005448262000598565b9150620005518362000598565b9250817fffffffffffffffffffffffffffffffffffffffffffffffffffffffffffffffff04831182151516156200058d576200058c62000692565b5b828202905092915050565b6000819050919050565b60005b83811015620005c2578082015181840152602081019050620005a5565b83811115620005d2576000848401525b50505050565b60006002820490506001821680620005f157607f821691505b60208210811415620006085762000607620006c1565b5b50919050565b620006198262000767565b810181811067ffffffffffffffff821117156200063b576200063a6200071f565b5b80604052505050565b6000620006518262000598565b91507fffffffffffffffffffffffffffffffffffffffffffffffffffffffffffffffff82141562000687576200068662000692565b5b600182019050919050565b7f4e487b7100000000000000000000000000000000000000000000000000000000600052601160045260246000fd5b7f4e487b7100000000000000000000000000000000000000000000000000000000600052602260045260246000fd5b7f4e487b7100000000000000000000000000000000000000000000000000000000600052603260045260246000fd5b7f4e487b7100000000000000000000000000000000000000000000000000000000600052604160045260246000fd5b600080fd5b600080fd5b600080fd5b600080fd5b600080fd5b6000601f19601f8301169050919050565b620007838162000598565b81146200078f57600080fd5b50565b610fa680620007a26000396000f3fe608060405234801561001057600080fd5b50600436106100935760003560e01c8063581c281c11610066578063581c281c1461011f57806385a386351461013d57806390a9ab901461015b578063a3ec138d14610179578063efb98bcf146101a957610093565b80630121b93f14610098578063101158af146100b45780633477ee2e146100d2578063462e91ec14610103575b600080fd5b6100b260048036038101906100ad919061084b565b6101c7565b005b6100bc610331565b6040516100c99190610b56565b60405180910390f35b6100ec60048036038101906100e7919061084b565b610337565b6040516100fa929190610aa6565b60405180910390f35b61011d60048036038101906101189190610802565b6103f3565b005b6101276104f0565b6040516101349190610a8b565b60405180910390f35b61014561050a565b6040516101529190610b56565b60405180910390f35b610163610510565b6040516101709190610a69565b60405180910390f35b610193600480360381019061018e91906107d5565b61060b565b6040516101a09190610a8b565b60405180910390f35b6101b161062b565b6040516101be9190610b56565b60405180910390f35b600260003373ffffffffffffffffffffffffffffffffffffffff1673ffffffffffffffffffffffffffffffffffffffff16815260200190815260200160002060009054906101000a900460ff1615610254576040517f08c379a000000000000000000000000000000000000000000000000000000000815260040161024b90610ad6565b60405180910390fd5b600080549050811061029b576040517f08c379a000000000000000000000000000000000000000000000000000000000815260040161029290610af6565b60405180910390fd5b600081815481106102af576102ae610df5565b5b906000526020600020906002020160010160008154809291906102d190610d4e565b91905055506001600260003373ffffffffffffffffffffffffffffffffffffffff1673ffffffffffffffffffffffffffffffffffffffff16815260200190815260200160002060006101000a81548160ff02191690831515021790555050565b60035481565b6000818154811061034757600080fd5b906000526020600020906002020160009150905080600001805461036a90610ceb565b80601f016020809104026020016040519081016040528092919081815260200182805461039690610ceb565b80156103e35780601f106103b8576101008083540402835291602001916103e3565b820191906000526020600020905b8154815290600101906020018083116103c657829003601f168201915b5050505050908060010154905082565b600160009054906101000a900473ffffffffffffffffffffffffffffffffffffffff1673ffffffffffffffffffffffffffffffffffffffff163373ffffffffffffffffffffffffffffffffffffffff1614610483576040517f08c379a000000000000000000000000000000000000000000000000000000000815260040161047a90610b16565b60405180910390fd5b600060405180604001604052808381526020016000815250908060018154018082558091505060019003906000526020600020906002020160009091909190915060008201518160000190805190602001906104e0929190610698565b5060208201518160010155505050565b60006003544210158015610505575060045442105b905090565b60045481565b60606000805480602002602001604051908101604052809291908181526020016000905b82821015610602578382906000526020600020906002020160405180604001604052908160008201805461056790610ceb565b80601f016020809104026020016040519081016040528092919081815260200182805461059390610ceb565b80156105e05780601f106105b5576101008083540402835291602001916105e0565b820191906000526020600020905b8154815290600101906020018083116105c357829003601f168201915b5050505050815260200160018201548152505081526020019060010190610534565b50505050905090565b60026020528060005260406000206000915054906101000a900460ff1681565b6000600354421015610672576040517f08c379a000000000000000000000000000000000000000000000000000000000815260040161066990610b36565b60405180910390fd5b60045442106106845760009050610695565b426004546106929190610c2d565b90505b90565b8280546106a490610ceb565b90600052602060002090601f0160209004810192826106c6576000855561070d565b82601f106106df57805160ff191683800117855561070d565b8280016001018555821561070d579182015b8281111561070c5782518255916020019190600101906106f1565b5b50905061071a919061071e565b5090565b5b8082111561073757600081600090555060010161071f565b5090565b600061074e61074984610b96565b610b71565b90508281526020810184848401111561076a57610769610e58565b5b610775848285610ca9565b509392505050565b60008135905061078c81610f42565b92915050565b600082601f8301126107a7576107a6610e53565b5b81356107b784826020860161073b565b91505092915050565b6000813590506107cf81610f59565b92915050565b6000602082840312156107eb576107ea610e62565b5b60006107f98482850161077d565b91505092915050565b60006020828403121561081857610817610e62565b5b600082013567ffffffffffffffff81111561083657610835610e5d565b5b61084284828501610792565b91505092915050565b60006020828403121561086157610860610e62565b5b600061086f848285016107c0565b91505092915050565b60006108848383610a0e565b905092915050565b600061089782610bd7565b6108a18185610bfa565b9350836020820285016108b385610bc7565b8060005b858110156108ef57848403895281516108d08582610878565b94506108db83610bed565b925060208a019950506001810190506108b7565b50829750879550505050505092915050565b61090a81610c73565b82525050565b600061091b82610be2565b6109258185610c0b565b9350610935818560208601610cb8565b61093e81610e67565b840191505092915050565b600061095482610be2565b61095e8185610c1c565b935061096e818560208601610cb8565b61097781610e67565b840191505092915050565b600061098f601783610c1c565b915061099a82610e78565b602082019050919050565b60006109b2601883610c1c565b91506109bd82610ea1565b602082019050919050565b60006109d5602f83610c1c565b91506109e082610eca565b604082019050919050565b60006109f8601b83610c1c565b9150610a0382610f19565b602082019050919050565b60006040830160008301518482036000860152610a2b8282610910565b9150506020830151610a406020860182610a4b565b508091505092915050565b610a5481610c9f565b82525050565b610a6381610c9f565b82525050565b60006020820190508181036000830152610a83818461088c565b905092915050565b6000602082019050610aa06000830184610901565b92915050565b60006040820190508181036000830152610ac08185610949565b9050610acf6020830184610a5a565b9392505050565b60006020820190508181036000830152610aef81610982565b9050919050565b60006020820190508181036000830152610b0f816109a5565b9050919050565b60006020820190508181036000830152610b2f816109c8565b9050919050565b60006020820190508181036000830152610b4f816109eb565b9050919050565b6000602082019050610b6b6000830184610a5a565b92915050565b6000610b7b610b8c565b9050610b878282610d1d565b919050565b6000604051905090565b600067ffffffffffffffff821115610bb157610bb0610e24565b5b610bba82610e67565b9050602081019050919050565b6000819050602082019050919050565b600081519050919050565b600081519050919050565b6000602082019050919050565b600082825260208201905092915050565b600082825260208201905092915050565b600082825260208201905092915050565b6000610c3882610c9f565b9150610c4383610c9f565b925082821015610c5657610c55610d97565b5b828203905092915050565b6000610c6c82610c7f565b9050919050565b60008115159050919050565b600073ffffffffffffffffffffffffffffffffffffffff82169050919050565b6000819050919050565b82818337600083830152505050565b60005b83811015610cd6578082015181840152602081019050610cbb565b83811115610ce5576000848401525b50505050565b60006002820490506001821680610d0357607f821691505b60208210811415610d1757610d16610dc6565b5b50919050565b610d2682610e67565b810181811067ffffffffffffffff82111715610d4557610d44610e24565b5b80604052505050565b6000610d5982610c9f565b91507fffffffffffffffffffffffffffffffffffffffffffffffffffffffffffffffff821415610d8c57610d8b610d97565b5b600182019050919050565b7f4e487b7100000000000000000000000000000000000000000000000000000000600052601160045260246000fd5b7f4e487b7100000000000000000000000000000000000000000000000000000000600052602260045260246000fd5b7f4e487b7100000000000000000000000000000000000000000000000000000000600052603260045260246000fd5b7f4e487b7100000000000000000000000000000000000000000000000000000000600052604160045260246000fd5b600080fd5b600080fd5b600080fd5b600080fd5b6000601f19601f8301169050919050565b7f596f75206861766520616c726561647920766f7465642e000000000000000000600082015250565b7f496e76616c69642063616e64696461746520696e6465782e0000000000000000600082015250565b7f4f6e6c792074686520636f6e7472616374206f776e65722063616e2063616c6c60008201527f20746869732066756e6374696f6e2e0000000000000000000000000000000000602082015250565b7f566f74696e6720686173206e6f742073746172746564207965742e0000000000600082015250565b610f4b81610c61565b8114610f5657600080fd5b50565b610f6281610c9f565b8114610f6d57600080fd5b5056fea264697066735822122057faa2795de045495e4c0029e83de34cd5b9cbe253c5385b66006098057293b764736f6c63430008070033",
  "linkReferences": {},
  "deployedLinkReferences": {}
}